:100000000C9462000C948A000C948A000C948A0070
:100010000C948A000C948A000C948A000C948A0038
:100020000C948A000C948A000C948A000C948A0028
:100030000C948A000C948A000C948A000C948A0018
:100040000C940D050C948A000C94D3040C94980421
:100050000C948A000C948A000C948A000C948A00F8
:100060000C948A000C948A000000000024002700F1
:100070002A0000000000250028002B0000000000DE
:1000800023002600290004040404040404040202DA
:100090000202020203030303030301020408102007
:1000A0004080010204081020010204081020000012
:1000B0000007000201000003040600000000000029
:1000C0000000570511241FBECFEFD8E0DEBFCDBF23
:1000D00011E0A0E0B1E0EEE4F3E102C005900D9282
:1000E000AA36B107D9F722E0AAE6B1E001C01D9215
:1000F000AB32B207E1F710E0C2E6D0E004C02197CE
:10010000FE010E949F09C136D107C9F70E949B05D5
:100110000C9437070C9400000F931F93CF93DF9339
:10012000FC01A685B7858D01005C1F4FE801888121
:10013000998101968F739927AD014E5B5F4FEA015C
:100140002881398128173907D1F3E80128813981BD
:10015000A20FB31F6C93A685B785A05CBF4F119605
:100160009C938E93A689B7892C9181E090E0078CAF
:1001700002C0880F991F0A94E2F7822B8C9381E0CA
:1001800081A30488F589E02D80818064808381E0EB
:1001900090E0DF91CF911F910F910895CF93DF935E
:1001A0006DE08BEF91E00E948C00EC016AE08BEF38
:1001B00091E00E948C008C0F9D1FDF91CF910895DC
:1001C000FC0181A1882329F0A489B5898C9186FF3F
:1001D000FBCF11A20895FC01A485B585FD01E05C6B
:1001E000FF4F208131813296808191812817390714
:1001F00079F080819181A80FB91F8C912081318184
:100200002F5F3F4F2F7333273183208390E0089572
:100210008FEF9FEF0895DC011C96ED91FC911D97E7
:10022000DF01A05CBF4F2D913C91119712968D91EB
:100230009C9111972817390739F08D919C91E80FFF
:10024000F91F808190E008958FEF9FEF0895FC01E2
:1002500024853585F901E05CFF4F808191813296DC
:1002600020813181821B930B8F73992708958BEF27
:1002700091E00C9427010895CF92DF92EF92FF92C4
:100280000F931F93CF93DF936C01EB017B01E40E7F
:10029000F51E00E010E0CE15DF0561F06991D60192
:1002A000ED91FC910190F081E02DC6010995080FB8
:1002B000191FF1CFC801DF91CF911F910F91FF90CE
:1002C000EF90DF90CF900895833081F028F4813053
:1002D00099F08230A1F008958630A9F08730B9F006
:1002E0008430D1F4809180008F7D03C080918000A4
:1002F0008F7780938000089584B58F7702C084B58E
:100300008F7D84BD08958091B0008F7703C0809168
:10031000B0008F7D8093B0000895CF93DF93282F96
:1003200030E0F901E255FF4F8491F901E656FF4FA5
:10033000D491F901EA57FF4FC491CC2391F0811178
:100340000E946401EC2FF0E0EE0FFF1FE458FF4F16
:10035000A591B491EC91ED2381E090E021F480E04F
:1003600002C080E090E0DF91CF9108951F93CF937A
:10037000DF93282F30E0F901E255FF4F8491F90116
:10038000E656FF4FD491F901EA57FF4FC491CC23B1
:10039000C1F0162F81110E946401EC2FF0E0EE0FE6
:1003A000FF1FEE58FF4FA591B4919FB7F89411111C
:1003B00004C08C91D095D82302C0EC91DE2BDC9345
:1003C0009FBFDF91CF911F910895CF93DF9390E06E
:1003D000FC01E656FF4F2491FC01EA57FF4F849140
:1003E000882361F190E0880F991FFC01E859FF4FC5
:1003F000C591D491FC01EE58FF4FA591B4916111C4
:1004000009C09FB7F8948881209582238883EC9156
:100410002E230BC0623061F49FB7F8948881322F8D
:10042000309583238883EC912E2B2C939FBF06C09D
:100430008FB7F894E8812E2B28838FBFDF91CF915F
:1004400008953FB7F89480916B0190916C01A09151
:100450006D01B0916E0126B5A89B05C02F3F19F024
:100460000196A11DB11D3FBFBA2FA92F982F882734
:10047000820F911DA11DB11DBC01CD0142E0660F8F
:10048000771F881F991F4A95D1F70895CF92DF9261
:10049000EF92FF92CF93DF936B017C010E942102C8
:1004A000EB01C114D104E104F10479F00E942102AE
:1004B0006C1B7D0B683E7340A0F381E0C81AD10825
:1004C000E108F108C851DC4FECCFDF91CF91FF90EC
:1004D000EF90DF90CF900895EF92FF921F93CF930C
:1004E000DF9361E0809123020E94B6016AEF70E021
:1004F00080E090E00E9446022FB7F89480916F014F
:1005000090917001A0917101B09172012FBF409143
:1005100026025091270260912802709129028417C7
:100520009507A607B70740F41092260210922702FB
:10053000109228021092290220912A02211113C040
:100540004091260250912702609128027091290261
:10055000841B950BA60BB70B803D9740A105B105F9
:1005600010F481E085C010922A022FB7F894809190
:100570006F0190917001A0917101B09172012FBF34
:100580008093260290932702A0932802B093290219
:10059000109221021092200210921F0210921E024D
:1005A00010921D0261E0809123020E94E50160E04B
:1005B000809123020E94B60164E170E080E090E047
:1005C0000E94460261E0809123020E94B6018AE9FE
:1005D00090E00197F1F760E0809123020E94E5012D
:1005E00010E081E0C0E0D0E0E82EF12C8091230201
:1005F0000E948D018E159F0519F4DF5FDF3FB1F773
:10060000809123020E948D01DF3FC1F0C43098F039
:10061000C0FD11C0E12FE695E695E695F0E0E35EBA
:10062000FD4F9081990F9083209125022D1710F492
:10063000916090831F5FCF5FC535A9F61832B8F07F
:100640002091210230E040911D0280911E0290E035
:10065000840F911D40911F02840F911D4091200233
:10066000840F911D99272817390709F47ACF80E064
:10067000DF91CF911F91FF90EF900895009769F05F
:10068000FC0101900020E9F73197AF01481B590B9D
:10069000BC018BEF91E00C943C0180E090E0089568
:1006A0008F929F92AF92BF92EF92FF920F931F9300
:1006B000CF93DF93CDB7DEB7A1970FB6F894DEBF27
:1006C0000FBECDBF162F042F19A2423008F40AE046
:1006D0007E0121E2E20EF11C802E912CA12CB12C86
:1006E000612FA50194010E947D09029F1019112418
:1006F00081E0E81AF1081A3014F4105D01C0195CA9
:10070000F7011083122F732FCA01232B242B252BC3
:1007100039F7C7010E943E03A1960FB6F894DEBFD9
:100720000FBECDBFDF91CF911F910F91FF90EF9042
:10073000BF90AF909F908F900895CF92DF92EF92ED
:10074000FF92CF93DF936B017C016DE28BEF91E021
:100750000E948C00EC0166277727CB016C197D097C
:100760008E099F094AE00E9450038C0F9D1FDF9164
:10077000CF91FF90EF90DF90CF9008958F929F924E
:10078000AF92BF92CF92DF92EF92FF920F931F939F
:10079000CF93DF936B017C01142F9B01AC010E946E
:1007A0007809882319F080E191E027C046015701BC
:1007B000E894B7F82FEF3FEF4FE75FE7C501B401CB
:1007C0000E94780981110DC02FEF3FEF4FE75FE7DF
:1007D000C501B4010E94A70718161CF484E191E03A
:1007E0000CC02FEF3FEF4FE75FE4C701B6010E9457
:1007F0000609181684F488E191E0DF91CF911F91EA
:100800000F91FF90EF90DF90CF90BF90AF909F90AF
:100810008F900C943E032FEF3FEF4FE75FECC70143
:10082000B6010E94A70787FDE6CF20E030E0A901CE
:10083000C701B6010E94A70787FF0BC06DE28BEFCF
:1008400091E00E948C00EC01F7FAF094F7F8F09434
:1008500002C0C0E0D0E000E060E070E080E09FE334
:10086000101741F020E030E040E251E40E94AC0774
:100870000F5FF6CFA70196010E943B076B017C0139
:100880000E9425084B015C014AE00E945003C80FFA
:10089000D91F112309F43EC0C501B4010E945408B8
:1008A0009B01AC01C701B6010E943A076B017C01B4
:1008B0008CE191E00E943E03C80FD91F20E030E098
:1008C00040E251E4C701B6010E940B094B015C01F3
:1008D0000E941E086B01770FEE08FF08F7FE05C0A7
:1008E000C701B6010E949D0305C04AE0C701B601D9
:1008F0000E945003C80FD91FC701B6010E945608B5
:100900009B01AC01C501B4010E943A076B017C0157
:100910001150A1F6CE01DF91CF911F910F91FF9061
:10092000EF90DF90CF90BF90AF909F908F90089501
:100930001F920F920FB60F9211242F933F938F9314
:100940009F93EF93FF932091B3013091B401809175
:10095000B5019091B6012817390731F48091C10093
:100960008F7D8093C10014C0E091B501F091B60174
:10097000ED58FE4F20818091B5019091B60101960E
:100980008F7399279093B6018093B5012093C60089
:10099000FF91EF919F918F913F912F910F900FBEFB
:1009A0000F901F9018951F920F920FB60F9211245F
:1009B0002F934F935F938F939F93EF93FF93809128
:1009C000C00082FD1CC02091C6008091F70190916B
:1009D000F8014091F9015091FA0101968F7399271E
:1009E0004817590771F0E091F701F091F801E954C7
:1009F000FE4F20839093F8018093F70102C080910D
:100A0000C600FF91EF919F918F915F914F912F9130
:100A10000F900FBE0F901F9018951F920F920FB658
:100A20000F9211242F933F938F939F93AF93BF9374
:100A300080916F0190917001A0917101B09172014C
:100A400030916A0123E0230F2D3720F40196A11D78
:100A5000B11D05C026E8230F0296A11DB11D2093EC
:100A60006A0180936F0190937001A0937101B0931C
:100A7000720180916B0190916C01A0916D01B09118
:100A80006E010196A11DB11D80936B0190936C01C5
:100A9000A0936D01B0936E01BF91AF919F918F9123
:100AA0003F912F910F900FBE0F901F901895EBEF75
:100AB000F1E01382128288EE93E0A0E0B0E084833C
:100AC0009583A683B78384E091E09183808387EB4D
:100AD00091E09587848783E791E09787868785EC07
:100AE00090E0918B808B84EC90E0938B828B80ECF8
:100AF00090E0958B848B81EC90E0978B868B82ECD9
:100B000090E0918F808F86EC90E0938F828F84E0CD
:100B1000848F83E0858F87E0868F85E0878F81E0F3
:100B200080A3EDE1F2E09EE096839BE0978396E060
:100B3000908785870895789484B5826084BD84B554
:100B4000816084BD85B5826085BD85B5816085BDC8
:100B500080916E00816080936E0010928100809180
:100B60008100826080938100809181008160809308
:100B70008100809180008160809380008091B1002D
:100B800084608093B1008091B00081608093B00058
:100B900080917A00846080937A0080917A008260EC
:100BA00080937A0080917A00816080937A008091AE
:100BB0007A00806880937A001092C100E0910F0261
:100BC000F091100281E090E09C0100901B0202C0B5
:100BD000220F331F0A94E2F72083E0910B02F09179
:100BE0000C021082E0910D02F0910E022FEC208396
:100BF00010921C02E0911102F091120240819C01BE
:100C00000090170202C0220F331F0A94E2F7242B30
:100C10002083E0911102F091120240819C0100902A
:100C2000180202C0220F331F0A94E2F7242B2083FC
:100C3000E0911102F091120240819C010090190292
:100C400002C0220F331F0A94E2F7242B2083E09185
:100C50001102F0911202208100901A0202C0880F46
:100C6000991F0A94E2F780958223808360E08FE0E9
:100C70000E94E50160E0809123020E94E50161E0AD
:100C8000809123020E94B601109226021092270240
:100C900010922802109229028EE191E00E943E03F8
:100CA0000E94CE0011E40E946C02882399F1809189
:100CB00024028B3029F170F18551823058F5609112
:100CC0001D0270E080E090E00E94540820E030E0D7
:100CD00040E853E40E940B096B017C0160911E0205
:100CE00070E080E090E00E945608A70196010E9403
:100CF0003B0720E030E040E251E40E94AC0707C02F
:100D000060911D0270E080E090E00E9454084B0169
:100D10005C0107C08DE391E00E943E03812C912C81
:100D200054010E946C028823F1F1809124028B30DF
:100D300029F0C8F18551823058F035C060911F020A
:100D400070E080E090E00E9454086B017C0132C0AA
:100D5000C0911F026C2F6F7770E080E090E00E94DE
:100D6000560820E030E040E853E40E940B096B0194
:100D70007C016091200270E080E090E00E945608C3
:100D8000A70196010E943B0720E030E040E251E4D9
:100D90000E94AC076B017C01C7FF0CC0F7FAF0940E
:100DA000F7F8F09407C08DE391E00E943E03C12C58
:100DB000D12C760110937C0080917A00806480931E
:100DC0007A0080917A0086FDFCCFC09178008091F6
:100DD0007900D0E0D82BA7019601C701B6010E9487
:100DE0007809811108C0A5019401C501B4010E94D0
:100DF0007809882349F087E491E00E943E030E942D
:100E0000CE000E9437014FCF8FE591E00E943E0354
:100E100085E691E00E943E0342E0C501B4010E94D4
:100E2000BE0387E691E00E943E0342E0C701B6019F
:100E30000E94BE0387E691E00E943E03D7FF07C0F1
:100E4000BE01DD0F880B990B0E949D0307C0BE01F8
:100E5000DD0F880B990B4AE00E9450030E94CE00E0
:100E600068EE73E080E090E00E944602CACFF894FA
:100E70000C94A5095058BB27AA270E9452070C942E
:100E8000CC080E94BE0838F00E94C50820F039F452
:100E90009F3F19F426F40C94BB080EF4E095E7FB91
:100EA0000C94B508E92F0E94DD0858F3BA176207C1
:100EB00073078407950720F079F4A6F50C94FF08D2
:100EC0000EF4E0950B2EBA2FA02D0B01B901900165
:100ED0000C01CA01A0011124FF27591B99F0593FA9
:100EE00050F4503E68F11A16F040A22F232F342FF1
:100EF0004427585FF3CF469537952795A795F0403F
:100F00005395C9F77EF41F16BA0B620B730B840B53
:100F1000BAF09150A1F0FF0FBB1F661F771F881F0B
:100F2000C2F70EC0BA0F621F731F841F48F4879563
:100F300077956795B795F7959E3F08F0B0CF939555
:100F4000880F08F09927EE0F9795879508950E94CE
:100F5000910808F481E008950E94C0070C94CC0821
:100F60000E94C50858F00E94BE0840F029F45F3F77
:100F700029F00C94B50851110C9400090C94BB088D
:100F80000E94DD0868F39923B1F3552391F3951B73
:100F9000550BBB27AA2762177307840738F09F5F9A
:100FA0005F4F220F331F441FAA1FA9F335D00E2E07
:100FB0003AF0E0E832D091505040E695001CCAF774
:100FC0002BD0FE2F29D0660F771F881FBB1F261737
:100FD00037074807AB07B0E809F0BB0B802DBF010E
:100FE000FF2793585F4F3AF09E3F510578F00C94DD
:100FF000B5080C9400095F3FE4F3983ED4F386955E
:1010000077956795B795F7959F5FC9F7880F911DFD
:101010009695879597F90895E1E0660F771F881FE9
:10102000BB1F621773078407BA0720F0621B730B9C
:10103000840BBA0BEE1F88F7E09508950E942508EF
:101040006894B1110C94000908950E94E50888F095
:101050009F5798F0B92F9927B751B0F0E1F0660F7C
:10106000771F881F991F1AF0BA95C9F714C0B130BD
:1010700091F00E94FF08B1E008950C94FF08672FDB
:10108000782F8827B85F39F0B93FCCF386957795EC
:101090006795B395D9F73EF49095809570956195D5
:1010A0007F4F8F4F9F4F0895E89409C097FB3EF400
:1010B00090958095709561957F4F8F4F9F4F9923A5
:1010C000A9F0F92F96E9BB279395F6958795779523
:1010D0006795B795F111F8CFFAF4BB0F11F460FFE3
:1010E0001BC06F5F7F4F8F4F9F4F16C0882311F03B
:1010F00096E911C0772321F09EE8872F762F05C04F
:10110000662371F096E8862F70E060E02AF09A95E9
:10111000660F771F881FDAF7880F9695879597F9DE
:101120000895990F0008550FAA0BE0E8FEEF161678
:101130001706E807F907C0F012161306E407F507CB
:1011400098F0621B730B840B950B39F40A2661F03F
:10115000232B242B252B21F408950A2609F4A140E2
:10116000A6958FEF811D811D089597F99F6780E8EF
:1011700070E060E008959FEF80EC089500240A94E9
:101180001616170618060906089500240A94121662
:101190001306140605060895092E0394000C11F495
:1011A000882352F0BB0F40F4BF2B11F460FF04C042
:1011B0006F5F7F4F8F4F9F4F089557FD9058440F9B
:1011C000551F59F05F3F71F04795880F97FB991FA6
:1011D00061F09F3F79F08795089512161306140663
:1011E000551FF2CF4695F1DF08C0161617061806F0
:1011F000991FF1CF86957105610508940895E894CB
:10120000BB2766277727CB0197F908950E9491089D
:1012100008F48FEF08950E941E090C94CC080E94D8
:10122000BE0838F00E94C50820F0952311F00C94F8
:10123000B5080C94BB0811240C9400090E94DD0829
:1012400070F3959FC1F3950F50E0551F629FF00119
:10125000729FBB27F00DB11D639FAA27F00DB11D32
:10126000AA1F649F6627B00DA11D661F829F2227BB
:10127000B00DA11D621F739FB00DA11D621F839F42
:10128000A00D611D221F749F3327A00D611D231F18
:10129000849F600D211D822F762F6A2F11249F5766
:1012A00050409AF0F1F088234AF0EE0FFF1FBB1F69
:1012B000661F771F881F91505040A9F79E3F510528
:1012C00080F00C94B5080C9400095F3FE4F3983E5D
:1012D000D4F3869577956795B795F795E7959F5FD2
:1012E000C1F7FE2B880F911D9695879597F9089564
:1012F0000E949108880B990B0895A1E21A2EAA1B4F
:10130000BB1BFD010DC0AA1FBB1FEE1FFF1FA217B5
:10131000B307E407F50720F0A21BB30BE40BF50BB2
:10132000661F771F881F991F1A9469F7609570953B
:10133000809590959B01AC01BD01CF010895EE0F02
:0E134000FF1F0590F491E02D0994F894FFCF63
:10134E00000000008C003C012701EB000B01E000C7
:10135E006E616E00696E66006F7666002E005374C5
:10136E006172743A41552C2D32352E323734333961
:10137E00392C3133332E37373531333100526561E5
:10138E0064206661696C004661696C656420746FE7
:10139E0020726561642066726F6D2044485400446B
:0A13AE006174613A0041552C000003
:00000001FF
