:100000000C9462000C948A000C948A000C948A0070
:100010000C948A000C948A000C948A000C948A0038
:100020000C948A000C948A000C948A000C948A0028
:100030000C948A000C948A000C948A000C948A0018
:100040000C940D050C948A000C94D3040C94980421
:100050000C948A000C948A000C948A000C948A00F8
:100060000C948A000C948A000000000024002700F1
:100070002A0000000000250028002B0000000000DE
:1000800023002600290004040404040404040202DA
:100090000202020203030303030301020408102007
:1000A0004080010204081020010204081020000012
:1000B0000007000201000003040600000000000029
:1000C0000000570511241FBECFEFD8E0DEBFCDBF23
:1000D00011E0A0E0B1E0EAE3F3E102C005900D9287
:1000E000A834B107D9F722E0A8E4B1E001C01D921D
:1000F000A930B207E1F710E0C2E6D0E004C02197D2
:10010000FE010E949509C136D107C9F70E949B05DF
:100110000C942D070C9400000F931F93CF93DF9343
:10012000FC01A685B7858D01005C1F4FE801888121
:10013000998101968F739927AD014E5B5F4FEA015C
:100140002881398128173907D1F3E80128813981BD
:10015000A20FB31F6C93A685B785A05CBF4F119605
:100160009C938E93A689B7892C9181E090E0078CAF
:1001700002C0880F991F0A94E2F7822B8C9381E0CA
:1001800081A30488F589E02D80818064808381E0EB
:1001900090E0DF91CF911F910F910895CF93DF935E
:1001A0006DE089ED91E00E948C00EC016AE089ED40
:1001B00091E00E948C008C0F9D1FDF91CF910895DC
:1001C000FC0181A1882329F0A489B5898C9186FF3F
:1001D000FBCF11A20895FC01A485B585FD01E05C6B
:1001E000FF4F208131813296808191812817390714
:1001F00079F080819181A80FB91F8C912081318184
:100200002F5F3F4F2F7333273183208390E0089572
:100210008FEF9FEF0895DC011C96ED91FC911D97E7
:10022000DF01A05CBF4F2D913C91119712968D91EB
:100230009C9111972817390739F08D919C91E80FFF
:10024000F91F808190E008958FEF9FEF0895FC01E2
:1002500024853585F901E05CFF4F808191813296DC
:1002600020813181821B930B8F739927089589ED2B
:1002700091E00C9427010895CF92DF92EF92FF92C4
:100280000F931F93CF93DF936C01EB017B01E40E7F
:10029000F51E00E010E0CE15DF0561F06991D60192
:1002A000ED91FC910190F081E02DC6010995080FB8
:1002B000191FF1CFC801DF91CF911F910F91FF90CE
:1002C000EF90DF90CF900895833081F028F4813053
:1002D00099F08230A1F008958630A9F08730B9F006
:1002E0008430D1F4809180008F7D03C080918000A4
:1002F0008F7780938000089584B58F7702C084B58E
:100300008F7D84BD08958091B0008F7703C0809168
:10031000B0008F7D8093B0000895CF93DF93282F96
:1003200030E0F901E255FF4F8491F901E656FF4FA5
:10033000D491F901EA57FF4FC491CC2391F0811178
:100340000E946401EC2FF0E0EE0FFF1FE458FF4F16
:10035000A591B491EC91ED2381E090E021F480E04F
:1003600002C080E090E0DF91CF9108951F93CF937A
:10037000DF93282F30E0F901E255FF4F8491F90116
:10038000E656FF4FD491F901EA57FF4FC491CC23B1
:10039000C1F0162F81110E946401EC2FF0E0EE0FE6
:1003A000FF1FEE58FF4FA591B4919FB7F89411111C
:1003B00004C08C91D095D82302C0EC91DE2BDC9345
:1003C0009FBFDF91CF911F910895CF93DF9390E06E
:1003D000FC01E656FF4F2491FC01EA57FF4F849140
:1003E000882361F190E0880F991FFC01E859FF4FC5
:1003F000C591D491FC01EE58FF4FA591B4916111C4
:1004000009C09FB7F8948881209582238883EC9156
:100410002E230BC0623061F49FB7F8948881322F8D
:10042000309583238883EC912E2B2C939FBF06C09D
:100430008FB7F894E8812E2B28838FBFDF91CF915F
:1004400008953FB7F8948091490190914A01A09195
:100450004B01B0914C0126B5A89B05C02F3F19F068
:100460000196A11DB11D3FBFBA2FA92F982F882734
:10047000820F911DA11DB11DBC01CD0142E0660F8F
:10048000771F881F991F4A95D1F70895CF92DF9261
:10049000EF92FF92CF93DF936B017C010E942102C8
:1004A000EB01C114D104E104F10479F00E942102AE
:1004B0006C1B7D0B683E7340A0F381E0C81AD10825
:1004C000E108F108C851DC4FECCFDF91CF91FF90EC
:1004D000EF90DF90CF900895EF92FF921F93CF930C
:1004E000DF9361E0809101020E94B6016AEF70E043
:1004F00080E090E00E9446022FB7F89480914D0171
:1005000090914E01A0914F01B09150012FBF4091A9
:10051000040250910502609106027091070284174F
:100520009507A607B70740F410920402109205023F
:10053000109206021092070220910802211113C0A6
:1005400040910402509105026091060270910702E9
:10055000841B950BA60BB70B803D9740A105B105F9
:1005600010F481E085C0109208022FB7F8948091B2
:100570004D0190914E01A0914F01B09150012FBFBC
:100580008093040290930502A0930602B0930702A1
:100590001092FF011092FE011092FD011092FC01D9
:1005A0001092FB0161E0809101020E94E50160E090
:1005B000809101020E94B60164E170E080E090E069
:1005C0000E94460261E0809101020E94B6018AE920
:1005D00090E00197F1F760E0809101020E94E5014F
:1005E00010E081E0C0E0D0E0E82EF12C8091010223
:1005F0000E948D018E159F0519F4DF5FDF3FB1F773
:10060000809101020E948D01DF3FC1F0C43098F05B
:10061000C0FD11C0E12FE695E695E695F0E0E550C6
:10062000FE4F9081990F9083209103022D1710F4B3
:10063000916090831F5FCF5FC535A9F61832B8F07F
:100640002091FF0130E04091FB018091FC0190E09E
:10065000840F911D4091FD01840F911D4091FE0179
:10066000840F911D99272817390709F47ACF80E064
:10067000DF91CF911F91FF90EF900895009769F05F
:10068000FC0101900020E9F73197AF01481B590B9D
:10069000BC0189ED91E00C943C0180E090E008956C
:1006A0008F929F92AF92BF92EF92FF920F931F9300
:1006B000CF93DF93CDB7DEB7A1970FB6F894DEBF27
:1006C0000FBECDBF162F042F19A2423008F40AE046
:1006D0007E0121E2E20EF11C802E912CA12CB12C86
:1006E000612FA50194010E947309029F1019112422
:1006F00081E0E81AF1081A3014F4105D01C0195CA9
:10070000F7011083122F732FCA01232B242B252BC3
:1007100039F7C7010E943E03A1960FB6F894DEBFD9
:100720000FBECDBFDF91CF911F910F91FF90EF9042
:10073000BF90AF909F908F900895CF92DF92EF92ED
:10074000FF92CF93DF936B017C016DE289ED91E025
:100750000E948C00EC0166277727CB016C197D097C
:100760008E099F094AE00E9450038C0F9D1FDF9164
:10077000CF91FF90EF90DF90CF9008958F929F924E
:10078000AF92BF92CF92DF92EF92FF920F931F939F
:10079000CF93DF936B017C01142F9B01AC010E946E
:1007A0006E09882319F080E191E027C046015701C6
:1007B000E894B7F82FEF3FEF4FE75FE7C501B401CB
:1007C0000E946E0981110DC02FEF3FEF4FE75FE7E9
:1007D000C501B4010E949D0718161CF484E191E044
:1007E0000CC02FEF3FEF4FE75FE4C701B6010E9457
:1007F000FC08181684F488E191E0DF91CF911F91F5
:100800000F91FF90EF90DF90CF90BF90AF909F90AF
:100810008F900C943E032FEF3FEF4FE75FECC70143
:10082000B6010E949D0787FDE6CF20E030E0A901D8
:10083000C701B6010E949D0787FF0BC06DE289EDDD
:1008400091E00E948C00EC01F7FAF094F7F8F09434
:1008500002C0C0E0D0E000E060E070E080E09FE334
:10086000101741F020E030E040E251E40E94A2077E
:100870000F5FF6CFA70196010E9431076B017C0143
:100880000E941B084B015C014AE00E945003C80F04
:10089000D91F112309F43EC0C501B4010E944A08C2
:1008A0009B01AC01C701B6010E9430076B017C01BE
:1008B0008CE191E00E943E03C80FD91F20E030E098
:1008C00040E251E4C701B6010E9401094B015C01FD
:1008D0000E9414086B01770FEE08FF08F7FE05C0B1
:1008E000C701B6010E949D0305C04AE0C701B601D9
:1008F0000E945003C80FD91FC701B6010E944C08BF
:100900009B01AC01C501B4010E9430076B017C0161
:100910001150A1F6CE01DF91CF911F910F91FF9061
:10092000EF90DF90CF90BF90AF909F908F90089501
:100930001F920F920FB60F9211242F933F938F9314
:100940009F93EF93FF9320919101309192018091B9
:100950009301909194012817390731F48091C100D7
:100960008F7D8093C10014C0E0919301F0919401B8
:10097000EF5AFE4F2081809193019091940101964E
:100980008F73992790939401809393012093C600CD
:10099000FF91EF919F918F913F912F910F900FBEFB
:1009A0000F901F9018951F920F920FB60F9211245F
:1009B0002F934F935F938F939F93EF93FF93809128
:1009C000C00082FD1CC02091C6008091D50190918D
:1009D000D6014091D7015091D80101968F73992784
:1009E0004817590771F0E091D501F091D601EB5607
:1009F000FE4F20839093D6018093D50102C0809151
:100A0000C600FF91EF919F918F915F914F912F9130
:100A10000F900FBE0F901F9018951F920F920FB658
:100A20000F9211242F933F938F939F93AF93BF9374
:100A300080914D0190914E01A0914F01B0915001D4
:100A40003091480123E0230F2D3720F40196A11D9A
:100A5000B11D05C026E8230F0296A11DB11D2093EC
:100A6000480180934D0190934E01A0934F01B093A4
:100A700050018091490190914A01A0914B01B091A0
:100A80004C010196A11DB11D8093490190934A012B
:100A9000A0934B01B0934C01BF91AF919F918F9167
:100AA0003F912F910F900FBE0F901F901895E9ED79
:100AB000F1E01382128288EE93E0A0E0B0E084833C
:100AC0009583A683B78384E091E09183808385E951
:100AD00091E09587848781E591E09787868785EC0B
:100AE00090E0918B808B84EC90E0938B828B80ECF8
:100AF00090E0958B848B81EC90E0978B868B82ECD9
:100B000090E0918F808F86EC90E0938F828F84E0CD
:100B1000848F83E0858F87E0868F85E0878F81E0F3
:100B200080A3EBEFF1E09EE096839BE0978396E055
:100B3000908785870895789484B5826084BD84B554
:100B4000816084BD85B5826085BD85B5816085BDC8
:100B500080916E00816080936E0010928100809180
:100B60008100826080938100809181008160809308
:100B70008100809180008160809380008091B1002D
:100B800084608093B1008091B00081608093B00058
:100B900080917A00846080937A0080917A008260EC
:100BA00080937A0080917A00816080937A008091AE
:100BB0007A00806880937A001092C100E091ED0184
:100BC000F091EE0181E090E09C010090F90102C0FB
:100BD000220F331F0A94E2F72083E091E901F0919C
:100BE000EA011082E091EB01F091EC012FEC2083FF
:100BF0001092FA01E091EF01F091F00140819C0127
:100C00000090F50102C0220F331F0A94E2F7242B53
:100C10002083E091EF01F091F00140819C01009070
:100C2000F60102C0220F331F0A94E2F7242B20831F
:100C3000E091EF01F091F00140819C010090F701FB
:100C400002C0220F331F0A94E2F7242B2083E09185
:100C5000EF01F091F00120810090F80102C0880FAF
:100C6000991F0A94E2F780958223808360E08FE0E9
:100C70000E94E50160E0809101020E94E50161E0CF
:100C8000809101020E94B6011092040210920502A6
:100C9000109206021092070211E40E946C0288234F
:100CA00099F1809102028B3029F170F185518230E7
:100CB00058F56091FB0170E080E090E00E944A08E6
:100CC00020E030E040E853E40E9401096B017C0120
:100CD0006091FC0170E080E090E00E944C08A70168
:100CE00096010E94310720E030E040E251E40E948A
:100CF000A20707C06091FB0170E080E090E00E94D5
:100D00004A084B015C0107C08EE191E00E943E035E
:100D1000812C912C54010E946C028823F1F1809166
:100D200002028B3029F0C8F18551823058F035C06D
:100D30006091FD0170E080E090E00E944A086B0144
:100D40007C0132C0C091FD016C2F6F7770E080E0B4
:100D500090E00E944C0820E030E040E853E40E941C
:100D600001096B017C016091FE0170E080E090E080
:100D70000E944C08A70196010E94310720E030E054
:100D800040E251E40E94A2076B017C01C7FF0CC046
:100D9000F7FAF094F7F8F09407C08EE191E00E9422
:100DA0003E03C12CD12C760110937C0080917A00F7
:100DB000806480937A0080917A0086FDFCCFC09198
:100DC000780080917900D0E0D82BA7019601C70167
:100DD000B6010E946E09811108C0A5019401C501E8
:100DE000B4010E946E09882349F088E291E00E94D4
:100DF0003E030E94CE000E9437014FCF80E491E075
:100E00000E943E0342E0C501B4010E94BE0386E495
:100E100091E00E943E0342E0C701B6010E94BE037A
:100E200086E491E00E943E03D7FF07C0BE01DD0FBC
:100E3000880B990B0E949D0307C0BE01DD0F880B34
:100E4000990B4AE00E9450030E94CE0068EE73E0C6
:100E500080E090E00E944602CECFF8940C949B096B
:100E60005058BB27AA270E9448070C94C2080E942A
:100E7000B40838F00E94BB0820F039F49F3F19F401
:100E800026F40C94B1080EF4E095E7FB0C94AB0843
:100E9000E92F0E94D30858F3BA1762077307840733
:100EA000950720F079F4A6F50C94F5080EF4E0957A
:100EB0000B2EBA2FA02D0B01B90190010C01CA0114
:100EC000A0011124FF27591B99F0593F50F4503EBF
:100ED00068F11A16F040A22F232F342F4427585FB1
:100EE000F3CF469537952795A795F0405395C9F7C9
:100EF0007EF41F16BA0B620B730B840BBAF0915081
:100F0000A1F0FF0FBB1F661F771F881FC2F70EC01F
:100F1000BA0F621F731F841F48F4879577956795F2
:100F2000B795F7959E3F08F0B0CF9395880F08F0DE
:100F30009927EE0F9795879508950E94870808F4E2
:100F400081E008950E94B6070C94C2080E94BB0875
:100F500058F00E94B40840F029F45F3F29F00C9447
:100F6000AB0851110C94F6080C94B1080E94D308F8
:100F700068F39923B1F3552391F3951B550BBB27C8
:100F8000AA2762177307840738F09F5F5F4F220F0D
:100F9000331F441FAA1FA9F335D00E2E3AF0E0E804
:100FA00032D091505040E695001CCAF72BD0FE2F4E
:100FB00029D0660F771F881FBB1F261737074807E2
:100FC000AB07B0E809F0BB0B802DBF01FF2793589A
:100FD0005F4F3AF09E3F510578F00C94AB080C94AB
:100FE000F6085F3FE4F3983ED4F3869577956795CE
:100FF000B795F7959F5FC9F7880F911D96958795CF
:1010000097F90895E1E0660F771F881FBB1F6217ED
:1010100073078407BA0720F0621B730B840BBA0BAB
:10102000EE1F88F7E09508950E941B086894B1119F
:101030000C94F60808950E94DB0888F09F5798F0FA
:10104000B92F9927B751B0F0E1F0660F771F881FCD
:10105000991F1AF0BA95C9F714C0B13091F00E94E7
:10106000F508B1E008950C94F508672F782F8827CC
:10107000B85F39F0B93FCCF3869577956795B3950E
:10108000D9F73EF490958095709561957F4F8F4F7D
:101090009F4F0895E89409C097FB3EF49095809582
:1010A000709561957F4F8F4F9F4F9923A9F0F92F2E
:1010B00096E9BB279395F695879577956795B795AC
:1010C000F111F8CFFAF4BB0F11F460FF1BC06F5F92
:1010D0007F4F8F4F9F4F16C0882311F096E911C0A4
:1010E000772321F09EE8872F762F05C0662371F0C5
:1010F00096E8862F70E060E02AF09A95660F771FD9
:10110000881FDAF7880F9695879597F90895990FB4
:101110000008550FAA0BE0E8FEEF16161706E807C1
:10112000F907C0F012161306E407F50798F0621BE2
:10113000730B840B950B39F40A2661F0232B242BB7
:10114000252B21F408950A2609F4A140A6958FEFD6
:10115000811D811D089597F99F6780E870E060E028
:1011600008959FEF80EC089500240A941616170640
:1011700018060906089500240A9412161306140688
:1011800005060895092E0394000C11F4882352F0EB
:10119000BB0F40F4BF2B11F460FF04C06F5F7F4FA3
:1011A0008F4F9F4F089557FD9058440F551F59F08A
:1011B0005F3F71F04795880F97FB991F61F09F3F44
:1011C00079F087950895121613061406551FF2CF6D
:1011D0004695F1DF08C0161617061806991FF1CFBD
:1011E00086957105610508940895E894BB276627E4
:1011F0007727CB0197F908950E94870808F48FEFAD
:1012000008950E9414090C94C2080E94B40838F092
:101210000E94BB0820F0952311F00C94AB080C94AD
:10122000B10811240C94F6080E94D30870F3959F1E
:10123000C1F3950F50E0551F629FF001729FBB27CD
:10124000F00DB11D639FAA27F00DB11DAA1F649F69
:101250006627B00DA11D661F829F2227B00DA11D1C
:10126000621F739FB00DA11D621F839FA00D611DA2
:10127000221F749F3327A00D611D231F849F600DC3
:10128000211D822F762F6A2F11249F5750409AF0EC
:10129000F1F088234AF0EE0FFF1FBB1F661F771F78
:1012A000881F91505040A9F79E3F510580F00C9443
:1012B000AB080C94F6085F3FE4F3983ED4F38695B0
:1012C00077956795B795F795E7959F5FC1F7FE2BE3
:1012D000880F911D9695879597F908950E94870824
:1012E000880B990B0895A1E21A2EAA1BBB1BFD01C6
:1012F0000DC0AA1FBB1FEE1FFF1FA217B307E407F5
:10130000F50720F0A21BB30BE40BF50B661F771F4C
:10131000881F991F1A9469F760957095809590952C
:101320009B01AC01BD01CF010895EE0FFF1F059099
:0A133000F491E02D0994F894FFCF2A
:10133A00000000008C003C012701EB000B01E000DB
:10134A006E616E00696E66006F7666002E005265E9
:10135A006164206661696C004661696C6564207429
:10136A006F20726561642066726F6D204448540074
:08137A00446174613A002C008B
:00000001FF
